{
  "_format": "hh-sol-artifact-1",
  "contractName": "PolySwap",
  "sourceName": "contracts/Polyswap.sol",
  "abi": [
    {
      "inputs": [
        {
          "internalType": "contract IERC20",
          "name": "_aiSwapToken",
          "type": "address"
        },
        {
          "internalType": "contract IERC20",
          "name": "_biSwapToken",
          "type": "address"
        },
        {
          "internalType": "string",
          "name": "_name",
          "type": "string"
        },
        {
          "internalType": "string",
          "name": "_symbol",
          "type": "string"
        }
      ],
      "stateMutability": "nonpayable",
      "type": "constructor"
    },
    {
      "anonymous": false,
      "inputs": [
        {
          "indexed": true,
          "internalType": "address",
          "name": "owner",
          "type": "address"
        },
        {
          "indexed": true,
          "internalType": "address",
          "name": "spender",
          "type": "address"
        },
        {
          "indexed": false,
          "internalType": "uint256",
          "name": "value",
          "type": "uint256"
        }
      ],
      "name": "Approval",
      "type": "event"
    },
    {
      "anonymous": false,
      "inputs": [
        {
          "indexed": true,
          "internalType": "address",
          "name": "from",
          "type": "address"
        },
        {
          "indexed": true,
          "internalType": "address",
          "name": "to",
          "type": "address"
        },
        {
          "indexed": false,
          "internalType": "uint256",
          "name": "value",
          "type": "uint256"
        }
      ],
      "name": "Transfer",
      "type": "event"
    },
    {
      "inputs": [],
      "name": "AiSwap",
      "outputs": [
        {
          "internalType": "contract IERC20",
          "name": "",
          "type": "address"
        }
      ],
      "stateMutability": "view",
      "type": "function"
    },
    {
      "inputs": [],
      "name": "BiSwap",
      "outputs": [
        {
          "internalType": "contract IERC20",
          "name": "",
          "type": "address"
        }
      ],
      "stateMutability": "view",
      "type": "function"
    },
    {
      "inputs": [],
      "name": "Polycoin",
      "outputs": [
        {
          "internalType": "contract IERC20",
          "name": "",
          "type": "address"
        }
      ],
      "stateMutability": "view",
      "type": "function"
    },
    {
      "inputs": [
        {
          "internalType": "address",
          "name": "owner",
          "type": "address"
        },
        {
          "internalType": "address",
          "name": "spender",
          "type": "address"
        }
      ],
      "name": "allowance",
      "outputs": [
        {
          "internalType": "uint256",
          "name": "",
          "type": "uint256"
        }
      ],
      "stateMutability": "view",
      "type": "function"
    },
    {
      "inputs": [
        {
          "internalType": "address",
          "name": "spender",
          "type": "address"
        },
        {
          "internalType": "uint256",
          "name": "amount",
          "type": "uint256"
        }
      ],
      "name": "approve",
      "outputs": [
        {
          "internalType": "bool",
          "name": "",
          "type": "bool"
        }
      ],
      "stateMutability": "nonpayable",
      "type": "function"
    },
    {
      "inputs": [
        {
          "internalType": "address",
          "name": "account",
          "type": "address"
        }
      ],
      "name": "balanceOf",
      "outputs": [
        {
          "internalType": "uint256",
          "name": "",
          "type": "uint256"
        }
      ],
      "stateMutability": "view",
      "type": "function"
    },
    {
      "inputs": [
        {
          "internalType": "address",
          "name": "_account",
          "type": "address"
        },
        {
          "internalType": "uint256",
          "name": "_amount",
          "type": "uint256"
        }
      ],
      "name": "burnPolycoin",
      "outputs": [],
      "stateMutability": "nonpayable",
      "type": "function"
    },
    {
      "inputs": [],
      "name": "decimals",
      "outputs": [
        {
          "internalType": "uint8",
          "name": "",
          "type": "uint8"
        }
      ],
      "stateMutability": "view",
      "type": "function"
    },
    {
      "inputs": [
        {
          "internalType": "address",
          "name": "spender",
          "type": "address"
        },
        {
          "internalType": "uint256",
          "name": "subtractedValue",
          "type": "uint256"
        }
      ],
      "name": "decreaseAllowance",
      "outputs": [
        {
          "internalType": "bool",
          "name": "",
          "type": "bool"
        }
      ],
      "stateMutability": "nonpayable",
      "type": "function"
    },
    {
      "inputs": [],
      "name": "getPolycoinPrice",
      "outputs": [
        {
          "internalType": "uint256",
          "name": "",
          "type": "uint256"
        }
      ],
      "stateMutability": "view",
      "type": "function"
    },
    {
      "inputs": [
        {
          "internalType": "address",
          "name": "spender",
          "type": "address"
        },
        {
          "internalType": "uint256",
          "name": "addedValue",
          "type": "uint256"
        }
      ],
      "name": "increaseAllowance",
      "outputs": [
        {
          "internalType": "bool",
          "name": "",
          "type": "bool"
        }
      ],
      "stateMutability": "nonpayable",
      "type": "function"
    },
    {
      "inputs": [
        {
          "internalType": "address",
          "name": "_account",
          "type": "address"
        },
        {
          "internalType": "uint256",
          "name": "_amount",
          "type": "uint256"
        }
      ],
      "name": "mintPolycoin",
      "outputs": [],
      "stateMutability": "nonpayable",
      "type": "function"
    },
    {
      "inputs": [],
      "name": "name",
      "outputs": [
        {
          "internalType": "string",
          "name": "",
          "type": "string"
        }
      ],
      "stateMutability": "view",
      "type": "function"
    },
    {
      "inputs": [],
      "name": "polycoinPrice",
      "outputs": [
        {
          "internalType": "uint256",
          "name": "",
          "type": "uint256"
        }
      ],
      "stateMutability": "view",
      "type": "function"
    },
    {
      "inputs": [
        {
          "internalType": "uint256",
          "name": "_newPolycoinPrice",
          "type": "uint256"
        }
      ],
      "name": "setPolycoinPrice",
      "outputs": [],
      "stateMutability": "nonpayable",
      "type": "function"
    },
    {
      "inputs": [
        {
          "internalType": "address",
          "name": "_token",
          "type": "address"
        },
        {
          "internalType": "uint256",
          "name": "amount",
          "type": "uint256"
        }
      ],
      "name": "swap",
      "outputs": [],
      "stateMutability": "nonpayable",
      "type": "function"
    },
    {
      "inputs": [
        {
          "internalType": "uint256",
          "name": "amount",
          "type": "uint256"
        }
      ],
      "name": "swapAiSwapforPolycoin",
      "outputs": [],
      "stateMutability": "nonpayable",
      "type": "function"
    },
    {
      "inputs": [
        {
          "internalType": "uint256",
          "name": "amount",
          "type": "uint256"
        }
      ],
      "name": "swapBiSwapforPolycoin",
      "outputs": [],
      "stateMutability": "nonpayable",
      "type": "function"
    },
    {
      "inputs": [],
      "name": "symbol",
      "outputs": [
        {
          "internalType": "string",
          "name": "",
          "type": "string"
        }
      ],
      "stateMutability": "view",
      "type": "function"
    },
    {
      "inputs": [],
      "name": "totalSupply",
      "outputs": [
        {
          "internalType": "uint256",
          "name": "",
          "type": "uint256"
        }
      ],
      "stateMutability": "view",
      "type": "function"
    },
    {
      "inputs": [
        {
          "internalType": "address",
          "name": "to",
          "type": "address"
        },
        {
          "internalType": "uint256",
          "name": "amount",
          "type": "uint256"
        }
      ],
      "name": "transfer",
      "outputs": [
        {
          "internalType": "bool",
          "name": "",
          "type": "bool"
        }
      ],
      "stateMutability": "nonpayable",
      "type": "function"
    },
    {
      "inputs": [
        {
          "internalType": "address",
          "name": "from",
          "type": "address"
        },
        {
          "internalType": "address",
          "name": "to",
          "type": "address"
        },
        {
          "internalType": "uint256",
          "name": "amount",
          "type": "uint256"
        }
      ],
      "name": "transferFrom",
      "outputs": [
        {
          "internalType": "bool",
          "name": "",
          "type": "bool"
        }
      ],
      "stateMutability": "nonpayable",
      "type": "function"
    },
    {
      "inputs": [
        {
          "internalType": "address",
          "name": "_token",
          "type": "address"
        },
        {
          "internalType": "uint256",
          "name": "amount",
          "type": "uint256"
        }
      ],
      "name": "unswap",
      "outputs": [],
      "stateMutability": "nonpayable",
      "type": "function"
    },
    {
      "inputs": [
        {
          "internalType": "uint256",
          "name": "amount",
          "type": "uint256"
        }
      ],
      "name": "unswapPolycoinforAiSwap",
      "outputs": [],
      "stateMutability": "nonpayable",
      "type": "function"
    },
    {
      "inputs": [
        {
          "internalType": "uint256",
          "name": "amount",
          "type": "uint256"
        }
      ],
      "name": "unswapPolycoinforBiSwap",
      "outputs": [],
      "stateMutability": "nonpayable",
      "type": "function"
    }
  ],
  "bytecode": "0x608060405260016008553480156200001657600080fd5b50604051620030bc380380620030bc83398181016040528101906200003c9190620004d0565b818181600390816200004f9190620007cb565b508060049081620000619190620007cb565b50505083600560006101000a81548173ffffffffffffffffffffffffffffffffffffffff021916908373ffffffffffffffffffffffffffffffffffffffff16021790555082600660006101000a81548173ffffffffffffffffffffffffffffffffffffffff021916908373ffffffffffffffffffffffffffffffffffffffff16021790555030600760006101000a81548173ffffffffffffffffffffffffffffffffffffffff021916908373ffffffffffffffffffffffffffffffffffffffff160217905550620001433069d3c21bcecceda10000006200014d60201b60201c565b50505050620009cd565b600073ffffffffffffffffffffffffffffffffffffffff168273ffffffffffffffffffffffffffffffffffffffff1603620001bf576040517f08c379a0000000000000000000000000000000000000000000000000000000008152600401620001b69062000913565b60405180910390fd5b620001d360008383620002ba60201b60201c565b8060026000828254620001e7919062000964565b92505081905550806000808473ffffffffffffffffffffffffffffffffffffffff1673ffffffffffffffffffffffffffffffffffffffff168152602001908152602001600020600082825401925050819055508173ffffffffffffffffffffffffffffffffffffffff16600073ffffffffffffffffffffffffffffffffffffffff167fddf252ad1be2c89b69c2b068fc378daa952ba7f163c4a11628f55a4df523b3ef836040516200029a9190620009b0565b60405180910390a3620002b660008383620002bf60201b60201c565b5050565b505050565b505050565b6000604051905090565b600080fd5b600080fd5b600073ffffffffffffffffffffffffffffffffffffffff82169050919050565b60006200030582620002d8565b9050919050565b60006200031982620002f8565b9050919050565b6200032b816200030c565b81146200033757600080fd5b50565b6000815190506200034b8162000320565b92915050565b600080fd5b600080fd5b6000601f19601f8301169050919050565b7f4e487b7100000000000000000000000000000000000000000000000000000000600052604160045260246000fd5b620003a6826200035b565b810181811067ffffffffffffffff82111715620003c857620003c76200036c565b5b80604052505050565b6000620003dd620002c4565b9050620003eb82826200039b565b919050565b600067ffffffffffffffff8211156200040e576200040d6200036c565b5b62000419826200035b565b9050602081019050919050565b60005b838110156200044657808201518184015260208101905062000429565b60008484015250505050565b6000620004696200046384620003f0565b620003d1565b90508281526020810184848401111562000488576200048762000356565b5b6200049584828562000426565b509392505050565b600082601f830112620004b557620004b462000351565b5b8151620004c784826020860162000452565b91505092915050565b60008060008060808587031215620004ed57620004ec620002ce565b5b6000620004fd878288016200033a565b945050602062000510878288016200033a565b935050604085015167ffffffffffffffff811115620005345762000533620002d3565b5b62000542878288016200049d565b925050606085015167ffffffffffffffff811115620005665762000565620002d3565b5b62000574878288016200049d565b91505092959194509250565b600081519050919050565b7f4e487b7100000000000000000000000000000000000000000000000000000000600052602260045260246000fd5b60006002820490506001821680620005d357607f821691505b602082108103620005e957620005e86200058b565b5b50919050565b60008190508160005260206000209050919050565b60006020601f8301049050919050565b600082821b905092915050565b600060088302620006537fffffffffffffffffffffffffffffffffffffffffffffffffffffffffffffffff8262000614565b6200065f868362000614565b95508019841693508086168417925050509392505050565b6000819050919050565b6000819050919050565b6000620006ac620006a6620006a08462000677565b62000681565b62000677565b9050919050565b6000819050919050565b620006c8836200068b565b620006e0620006d782620006b3565b84845462000621565b825550505050565b600090565b620006f7620006e8565b62000704818484620006bd565b505050565b5b818110156200072c5762000720600082620006ed565b6001810190506200070a565b5050565b601f8211156200077b576200074581620005ef565b620007508462000604565b8101602085101562000760578190505b620007786200076f8562000604565b83018262000709565b50505b505050565b600082821c905092915050565b6000620007a06000198460080262000780565b1980831691505092915050565b6000620007bb83836200078d565b9150826002028217905092915050565b620007d68262000580565b67ffffffffffffffff811115620007f257620007f16200036c565b5b620007fe8254620005ba565b6200080b82828562000730565b600060209050601f8311600181146200084357600084156200082e578287015190505b6200083a8582620007ad565b865550620008aa565b601f1984166200085386620005ef565b60005b828110156200087d5784890151825560018201915060208501945060208101905062000856565b868310156200089d578489015162000899601f8916826200078d565b8355505b6001600288020188555050505b505050505050565b600082825260208201905092915050565b7f45524332303a206d696e7420746f20746865207a65726f206164647265737300600082015250565b6000620008fb601f83620008b2565b91506200090882620008c3565b602082019050919050565b600060208201905081810360008301526200092e81620008ec565b9050919050565b7f4e487b7100000000000000000000000000000000000000000000000000000000600052601160045260246000fd5b6000620009718262000677565b91506200097e8362000677565b925082820190508082111562000999576200099862000935565b5b92915050565b620009aa8162000677565b82525050565b6000602082019050620009c760008301846200099f565b92915050565b6126df80620009dd6000396000f3fe608060405234801561001057600080fd5b50600436106101735760003560e01c806378472c34116100de578063d004f0f711610097578063dd62ed3e11610071578063dd62ed3e1461044c578063de9115e61461047c578063e67878bc14610498578063f1da2c98146104b457610173565b8063d004f0f7146103f6578063d6372fc314610412578063d9fea8fb1461042e57610173565b806378472c341461032057806395d89b411461033e5780639f3e15491461035c578063a457c2d71461037a578063a9059cbb146103aa578063bd86ec61146103da57610173565b8063313ce56711610130578063313ce5671461024e578063395093511461026c578063419108d41461029c57806342fd49bb146102b8578063676e8ede146102d457806370a08231146102f057610173565b806306fdde0314610178578063095ea7b3146101965780631200c79d146101c657806318160ddd146101e457806319aaee851461020257806323b872dd1461021e575b600080fd5b6101806104d2565b60405161018d91906118e7565b60405180910390f35b6101b060048036038101906101ab91906119a2565b610564565b6040516101bd91906119fd565b60405180910390f35b6101ce610587565b6040516101db9190611a27565b60405180910390f35b6101ec61058d565b6040516101f99190611a27565b60405180910390f35b61021c600480360381019061021791906119a2565b610597565b005b61023860048036038101906102339190611a42565b6105a5565b60405161024591906119fd565b60405180910390f35b6102566105d4565b6040516102639190611ab1565b60405180910390f35b610286600480360381019061028191906119a2565b6105dd565b60405161029391906119fd565b60405180910390f35b6102b660048036038101906102b19190611acc565b610614565b005b6102d260048036038101906102cd9190611acc565b610643565b005b6102ee60048036038101906102e99190611acc565b610672565b005b61030a60048036038101906103059190611af9565b6106a1565b6040516103179190611a27565b60405180910390f35b6103286106e9565b6040516103359190611b85565b60405180910390f35b61034661070f565b60405161035391906118e7565b60405180910390f35b6103646107a1565b6040516103719190611b85565b60405180910390f35b610394600480360381019061038f91906119a2565b6107c7565b6040516103a191906119fd565b60405180910390f35b6103c460048036038101906103bf91906119a2565b61083e565b6040516103d191906119fd565b60405180910390f35b6103f460048036038101906103ef91906119a2565b610861565b005b610410600480360381019061040b91906119a2565b61086f565b005b61042c600480360381019061042791906119a2565b61087d565b005b61043661088b565b6040516104439190611a27565b60405180910390f35b61046660048036038101906104619190611ba0565b610895565b6040516104739190611a27565b60405180910390f35b61049660048036038101906104919190611acc565b61091c565b005b6104b260048036038101906104ad9190611acc565b61094b565b005b6104bc610955565b6040516104c99190611b85565b60405180910390f35b6060600380546104e190611c0f565b80601f016020809104026020016040519081016040528092919081815260200182805461050d90611c0f565b801561055a5780601f1061052f5761010080835404028352916020019161055a565b820191906000526020600020905b81548152906001019060200180831161053d57829003601f168201915b5050505050905090565b60008061056f61097b565b905061057c818585610983565b600191505092915050565b60085481565b6000600254905090565b6105a18282610b4c565b5050565b6000806105b061097b565b90506105bd858285610ca2565b6105c8858585610d2e565b60019150509392505050565b60006012905090565b6000806105e861097b565b90506106098185856105fa8589610895565b6106049190611c6f565b610983565b600191505092915050565b610640600660009054906101000a900473ffffffffffffffffffffffffffffffffffffffff1682610fa4565b50565b61066f600560009054906101000a900473ffffffffffffffffffffffffffffffffffffffff16826112fc565b50565b61069e600660009054906101000a900473ffffffffffffffffffffffffffffffffffffffff16826112fc565b50565b60008060008373ffffffffffffffffffffffffffffffffffffffff1673ffffffffffffffffffffffffffffffffffffffff168152602001908152602001600020549050919050565b600560009054906101000a900473ffffffffffffffffffffffffffffffffffffffff1681565b60606004805461071e90611c0f565b80601f016020809104026020016040519081016040528092919081815260200182805461074a90611c0f565b80156107975780601f1061076c57610100808354040283529160200191610797565b820191906000526020600020905b81548152906001019060200180831161077a57829003601f168201915b5050505050905090565b600760009054906101000a900473ffffffffffffffffffffffffffffffffffffffff1681565b6000806107d261097b565b905060006107e08286610895565b905083811015610825576040517f08c379a000000000000000000000000000000000000000000000000000000000815260040161081c90611d15565b60405180910390fd5b6108328286868403610983565b60019250505092915050565b60008061084961097b565b9050610856818585610d2e565b600191505092915050565b61086b8282611654565b5050565b6108798282610fa4565b5050565b61088782826112fc565b5050565b6000600854905090565b6000600160008473ffffffffffffffffffffffffffffffffffffffff1673ffffffffffffffffffffffffffffffffffffffff16815260200190815260200160002060008373ffffffffffffffffffffffffffffffffffffffff1673ffffffffffffffffffffffffffffffffffffffff16815260200190815260200160002054905092915050565b610948600560009054906101000a900473ffffffffffffffffffffffffffffffffffffffff1682610fa4565b50565b8060088190555050565b600660009054906101000a900473ffffffffffffffffffffffffffffffffffffffff1681565b600033905090565b600073ffffffffffffffffffffffffffffffffffffffff168373ffffffffffffffffffffffffffffffffffffffff16036109f2576040517f08c379a00000000000000000000000000000000000000000000000000000000081526004016109e990611da7565b60405180910390fd5b600073ffffffffffffffffffffffffffffffffffffffff168273ffffffffffffffffffffffffffffffffffffffff1603610a61576040517f08c379a0000000000000000000000000000000000000000000000000000000008152600401610a5890611e39565b60405180910390fd5b80600160008573ffffffffffffffffffffffffffffffffffffffff1673ffffffffffffffffffffffffffffffffffffffff16815260200190815260200160002060008473ffffffffffffffffffffffffffffffffffffffff1673ffffffffffffffffffffffffffffffffffffffff168152602001908152602001600020819055508173ffffffffffffffffffffffffffffffffffffffff168373ffffffffffffffffffffffffffffffffffffffff167f8c5be1e5ebec7d5bd14f71427d1e84f3dd0314c0f7b2291e5b200ac8c7c3b92583604051610b3f9190611a27565b60405180910390a3505050565b600073ffffffffffffffffffffffffffffffffffffffff168273ffffffffffffffffffffffffffffffffffffffff1603610bbb576040517f08c379a0000000000000000000000000000000000000000000000000000000008152600401610bb290611ea5565b60405180910390fd5b610bc760008383611821565b8060026000828254610bd99190611c6f565b92505081905550806000808473ffffffffffffffffffffffffffffffffffffffff1673ffffffffffffffffffffffffffffffffffffffff168152602001908152602001600020600082825401925050819055508173ffffffffffffffffffffffffffffffffffffffff16600073ffffffffffffffffffffffffffffffffffffffff167fddf252ad1be2c89b69c2b068fc378daa952ba7f163c4a11628f55a4df523b3ef83604051610c8a9190611a27565b60405180910390a3610c9e60008383611826565b5050565b6000610cae8484610895565b90507fffffffffffffffffffffffffffffffffffffffffffffffffffffffffffffffff8114610d285781811015610d1a576040517f08c379a0000000000000000000000000000000000000000000000000000000008152600401610d1190611f11565b60405180910390fd5b610d278484848403610983565b5b50505050565b600073ffffffffffffffffffffffffffffffffffffffff168373ffffffffffffffffffffffffffffffffffffffff1603610d9d576040517f08c379a0000000000000000000000000000000000000000000000000000000008152600401610d9490611fa3565b60405180910390fd5b600073ffffffffffffffffffffffffffffffffffffffff168273ffffffffffffffffffffffffffffffffffffffff1603610e0c576040517f08c379a0000000000000000000000000000000000000000000000000000000008152600401610e0390612035565b60405180910390fd5b610e17838383611821565b60008060008573ffffffffffffffffffffffffffffffffffffffff1673ffffffffffffffffffffffffffffffffffffffff16815260200190815260200160002054905081811015610e9d576040517f08c379a0000000000000000000000000000000000000000000000000000000008152600401610e94906120c7565b60405180910390fd5b8181036000808673ffffffffffffffffffffffffffffffffffffffff1673ffffffffffffffffffffffffffffffffffffffff16815260200190815260200160002081905550816000808573ffffffffffffffffffffffffffffffffffffffff1673ffffffffffffffffffffffffffffffffffffffff168152602001908152602001600020600082825401925050819055508273ffffffffffffffffffffffffffffffffffffffff168473ffffffffffffffffffffffffffffffffffffffff167fddf252ad1be2c89b69c2b068fc378daa952ba7f163c4a11628f55a4df523b3ef84604051610f8b9190611a27565b60405180910390a3610f9e848484611826565b50505050565b6000610fbb6008548361182b90919063ffffffff16565b9050818373ffffffffffffffffffffffffffffffffffffffff1663dd62ed3e33306040518363ffffffff1660e01b8152600401610ff99291906120f6565b602060405180830381865afa158015611016573d6000803e3d6000fd5b505050506040513d601f19601f8201168201806040525081019061103a9190612134565b101561107b576040517f08c379a0000000000000000000000000000000000000000000000000000000008152600401611072906121d3565b60405180910390fd5b80600760009054906101000a900473ffffffffffffffffffffffffffffffffffffffff1673ffffffffffffffffffffffffffffffffffffffff166370a08231306040518263ffffffff1660e01b81526004016110d791906121f3565b602060405180830381865afa1580156110f4573d6000803e3d6000fd5b505050506040513d601f19601f820116820180604052508101906111189190612134565b1015611159576040517f08c379a00000000000000000000000000000000000000000000000000000000081526004016111509061225a565b60405180910390fd5b8273ffffffffffffffffffffffffffffffffffffffff166323b872dd3330856040518463ffffffff1660e01b81526004016111969392919061227a565b6020604051808303816000875af11580156111b5573d6000803e3d6000fd5b505050506040513d601f19601f820116820180604052508101906111d991906122dd565b611218576040517f08c379a000000000000000000000000000000000000000000000000000000000815260040161120f90612356565b60405180910390fd5b600760009054906101000a900473ffffffffffffffffffffffffffffffffffffffff1673ffffffffffffffffffffffffffffffffffffffff1663a9059cbb33836040518363ffffffff1660e01b8152600401611275929190612376565b6020604051808303816000875af1158015611294573d6000803e3d6000fd5b505050506040513d601f19601f820116820180604052508101906112b891906122dd565b6112f7576040517f08c379a00000000000000000000000000000000000000000000000000000000081526004016112ee906123eb565b60405180910390fd5b505050565b60006113136008548361184190919063ffffffff16565b905081600760009054906101000a900473ffffffffffffffffffffffffffffffffffffffff1673ffffffffffffffffffffffffffffffffffffffff1663dd62ed3e33306040518363ffffffff1660e01b81526004016113739291906120f6565b602060405180830381865afa158015611390573d6000803e3d6000fd5b505050506040513d601f19601f820116820180604052508101906113b49190612134565b10156113f5576040517f08c379a00000000000000000000000000000000000000000000000000000000081526004016113ec906121d3565b60405180910390fd5b808373ffffffffffffffffffffffffffffffffffffffff166370a08231306040518263ffffffff1660e01b815260040161142f91906121f3565b602060405180830381865afa15801561144c573d6000803e3d6000fd5b505050506040513d601f19601f820116820180604052508101906114709190612134565b10156114b1576040517f08c379a00000000000000000000000000000000000000000000000000000000081526004016114a89061225a565b60405180910390fd5b600760009054906101000a900473ffffffffffffffffffffffffffffffffffffffff1673ffffffffffffffffffffffffffffffffffffffff166323b872dd3330856040518463ffffffff1660e01b81526004016115109392919061227a565b6020604051808303816000875af115801561152f573d6000803e3d6000fd5b505050506040513d601f19601f8201168201806040525081019061155391906122dd565b611592576040517f08c379a000000000000000000000000000000000000000000000000000000000815260040161158990612457565b60405180910390fd5b8273ffffffffffffffffffffffffffffffffffffffff1663a9059cbb33836040518363ffffffff1660e01b81526004016115cd929190612376565b6020604051808303816000875af11580156115ec573d6000803e3d6000fd5b505050506040513d601f19601f8201168201806040525081019061161091906122dd565b61164f576040517f08c379a0000000000000000000000000000000000000000000000000000000008152600401611646906124c3565b60405180910390fd5b505050565b600073ffffffffffffffffffffffffffffffffffffffff168273ffffffffffffffffffffffffffffffffffffffff16036116c3576040517f08c379a00000000000000000000000000000000000000000000000000000000081526004016116ba90612555565b60405180910390fd5b6116cf82600083611821565b60008060008473ffffffffffffffffffffffffffffffffffffffff1673ffffffffffffffffffffffffffffffffffffffff16815260200190815260200160002054905081811015611755576040517f08c379a000000000000000000000000000000000000000000000000000000000815260040161174c906125e7565b60405180910390fd5b8181036000808573ffffffffffffffffffffffffffffffffffffffff1673ffffffffffffffffffffffffffffffffffffffff1681526020019081526020016000208190555081600260008282540392505081905550600073ffffffffffffffffffffffffffffffffffffffff168373ffffffffffffffffffffffffffffffffffffffff167fddf252ad1be2c89b69c2b068fc378daa952ba7f163c4a11628f55a4df523b3ef846040516118089190611a27565b60405180910390a361181c83600084611826565b505050565b505050565b505050565b600081836118399190612636565b905092915050565b6000818361184f9190612667565b905092915050565b600081519050919050565b600082825260208201905092915050565b60005b83811015611891578082015181840152602081019050611876565b60008484015250505050565b6000601f19601f8301169050919050565b60006118b982611857565b6118c38185611862565b93506118d3818560208601611873565b6118dc8161189d565b840191505092915050565b6000602082019050818103600083015261190181846118ae565b905092915050565b600080fd5b600073ffffffffffffffffffffffffffffffffffffffff82169050919050565b60006119398261190e565b9050919050565b6119498161192e565b811461195457600080fd5b50565b60008135905061196681611940565b92915050565b6000819050919050565b61197f8161196c565b811461198a57600080fd5b50565b60008135905061199c81611976565b92915050565b600080604083850312156119b9576119b8611909565b5b60006119c785828601611957565b92505060206119d88582860161198d565b9150509250929050565b60008115159050919050565b6119f7816119e2565b82525050565b6000602082019050611a1260008301846119ee565b92915050565b611a218161196c565b82525050565b6000602082019050611a3c6000830184611a18565b92915050565b600080600060608486031215611a5b57611a5a611909565b5b6000611a6986828701611957565b9350506020611a7a86828701611957565b9250506040611a8b8682870161198d565b9150509250925092565b600060ff82169050919050565b611aab81611a95565b82525050565b6000602082019050611ac66000830184611aa2565b92915050565b600060208284031215611ae257611ae1611909565b5b6000611af08482850161198d565b91505092915050565b600060208284031215611b0f57611b0e611909565b5b6000611b1d84828501611957565b91505092915050565b6000819050919050565b6000611b4b611b46611b418461190e565b611b26565b61190e565b9050919050565b6000611b5d82611b30565b9050919050565b6000611b6f82611b52565b9050919050565b611b7f81611b64565b82525050565b6000602082019050611b9a6000830184611b76565b92915050565b60008060408385031215611bb757611bb6611909565b5b6000611bc585828601611957565b9250506020611bd685828601611957565b9150509250929050565b7f4e487b7100000000000000000000000000000000000000000000000000000000600052602260045260246000fd5b60006002820490506001821680611c2757607f821691505b602082108103611c3a57611c39611be0565b5b50919050565b7f4e487b7100000000000000000000000000000000000000000000000000000000600052601160045260246000fd5b6000611c7a8261196c565b9150611c858361196c565b9250828201905080821115611c9d57611c9c611c40565b5b92915050565b7f45524332303a2064656372656173656420616c6c6f77616e63652062656c6f7760008201527f207a65726f000000000000000000000000000000000000000000000000000000602082015250565b6000611cff602583611862565b9150611d0a82611ca3565b604082019050919050565b60006020820190508181036000830152611d2e81611cf2565b9050919050565b7f45524332303a20617070726f76652066726f6d20746865207a65726f2061646460008201527f7265737300000000000000000000000000000000000000000000000000000000602082015250565b6000611d91602483611862565b9150611d9c82611d35565b604082019050919050565b60006020820190508181036000830152611dc081611d84565b9050919050565b7f45524332303a20617070726f766520746f20746865207a65726f20616464726560008201527f7373000000000000000000000000000000000000000000000000000000000000602082015250565b6000611e23602283611862565b9150611e2e82611dc7565b604082019050919050565b60006020820190508181036000830152611e5281611e16565b9050919050565b7f45524332303a206d696e7420746f20746865207a65726f206164647265737300600082015250565b6000611e8f601f83611862565b9150611e9a82611e59565b602082019050919050565b60006020820190508181036000830152611ebe81611e82565b9050919050565b7f45524332303a20696e73756666696369656e7420616c6c6f77616e6365000000600082015250565b6000611efb601d83611862565b9150611f0682611ec5565b602082019050919050565b60006020820190508181036000830152611f2a81611eee565b9050919050565b7f45524332303a207472616e736665722066726f6d20746865207a65726f20616460008201527f6472657373000000000000000000000000000000000000000000000000000000602082015250565b6000611f8d602583611862565b9150611f9882611f31565b604082019050919050565b60006020820190508181036000830152611fbc81611f80565b9050919050565b7f45524332303a207472616e7366657220746f20746865207a65726f206164647260008201527f6573730000000000000000000000000000000000000000000000000000000000602082015250565b600061201f602383611862565b915061202a82611fc3565b604082019050919050565b6000602082019050818103600083015261204e81612012565b9050919050565b7f45524332303a207472616e7366657220616d6f756e742065786365656473206260008201527f616c616e63650000000000000000000000000000000000000000000000000000602082015250565b60006120b1602683611862565b91506120bc82612055565b604082019050919050565b600060208201905081810360008301526120e0816120a4565b9050919050565b6120f08161192e565b82525050565b600060408201905061210b60008301856120e7565b61211860208301846120e7565b9392505050565b60008151905061212e81611976565b92915050565b60006020828403121561214a57612149611909565b5b60006121588482850161211f565b91505092915050565b7f7472616e7366657220616d6f756e74206578636565647320616c6c6f77616e6360008201527f6500000000000000000000000000000000000000000000000000000000000000602082015250565b60006121bd602183611862565b91506121c882612161565b604082019050919050565b600060208201905081810360008301526121ec816121b0565b9050919050565b600060208201905061220860008301846120e7565b92915050565b7f7472616e7366657220616d6f756e7420657863656564732062616c616e636500600082015250565b6000612244601f83611862565b915061224f8261220e565b602082019050919050565b6000602082019050818103600083015261227381612237565b9050919050565b600060608201905061228f60008301866120e7565b61229c60208301856120e7565b6122a96040830184611a18565b949350505050565b6122ba816119e2565b81146122c557600080fd5b50565b6000815190506122d7816122b1565b92915050565b6000602082840312156122f3576122f2611909565b5b6000612301848285016122c8565b91505092915050565b7f53776170206661696c6564000000000000000000000000000000000000000000600082015250565b6000612340600b83611862565b915061234b8261230a565b602082019050919050565b6000602082019050818103600083015261236f81612333565b9050919050565b600060408201905061238b60008301856120e7565b6123986020830184611a18565b9392505050565b7f5472616e73666572206661696c65640000000000000000000000000000000000600082015250565b60006123d5600f83611862565b91506123e08261239f565b602082019050919050565b60006020820190508181036000830152612404816123c8565b9050919050565b7f73776170206661696c6564000000000000000000000000000000000000000000600082015250565b6000612441600b83611862565b915061244c8261240b565b602082019050919050565b6000602082019050818103600083015261247081612434565b9050919050565b7f7472616e73666572206661696c65640000000000000000000000000000000000600082015250565b60006124ad600f83611862565b91506124b882612477565b602082019050919050565b600060208201905081810360008301526124dc816124a0565b9050919050565b7f45524332303a206275726e2066726f6d20746865207a65726f2061646472657360008201527f7300000000000000000000000000000000000000000000000000000000000000602082015250565b600061253f602183611862565b915061254a826124e3565b604082019050919050565b6000602082019050818103600083015261256e81612532565b9050919050565b7f45524332303a206275726e20616d6f756e7420657863656564732062616c616e60008201527f6365000000000000000000000000000000000000000000000000000000000000602082015250565b60006125d1602283611862565b91506125dc82612575565b604082019050919050565b60006020820190508181036000830152612600816125c4565b9050919050565b7f4e487b7100000000000000000000000000000000000000000000000000000000600052601260045260246000fd5b60006126418261196c565b915061264c8361196c565b92508261265c5761265b612607565b5b828204905092915050565b60006126728261196c565b915061267d8361196c565b925082820261268b8161196c565b915082820484148315176126a2576126a1611c40565b5b509291505056fea2646970667358221220e3f1d52d6ccb371e8384ce83b6b215ad8ed5a519d1e9cb13f2c665b9939089a364736f6c63430008110033",
  "linkReferences": {},
  "deployedLinkReferences": {}
}